:100000000C9434000C9451000C9451000C94510049
:100010000C9451000C9451000C9451000C9451001C
:100020000C9451000C9451000C9451000C9451000C
:100030000C9451000C9451000C9451000C945100FC
:100040000C9451000C9451000C9451000C945100EC
:100050000C9451000C9451000C9451000C945100DC
:100060000C9451000C94510011241FBECFEFD8E026
:10007000DEBFCDBF12E0A0E0B1E0EEE2F3E002C0EF
:1000800005900D92A634B107D9F722E0A6E4B2E0BC
:1000900001C01D92AB34B207E1F70E945C010C94E1
:1000A00095010C9400009093C5008093C400E1EC8E
:1000B000F0E080818861808308959091C00095FF71
:1000C000FCCF8093C6000895CF93DF93EC0103C06B
:1000D00021960E945D0088818111FACFDF91CF9136
:1000E00008958091C0008823E4F78091C6000895A8
:1000F000CF9380910E0190910F010E946400C0E0A7
:100100000BC0EC2FF0E0EE0FFF1FE65FFE4F80818B
:1001100091810E946400CF5FC23098F380910E01FC
:1001200090910F010E946400C0E00BC0EC2FF0E042
:10013000EE0FFF1FE050FF4F808191810E9464000D
:10014000CF5FC53098F380910E0190910F010E940E
:10015000640081E191E00E946400CF910895CF9303
:100160000E947100C82F80E38C0F0E945D008FEC0D
:100170008C0F843010F0C93329F485E191E00E949E
:10018000640004C089E191E00E946400C93321F059
:1001900081E191E00E9464008C2FCF9108951AB8FC
:1001A0008FEF84B9089587E690E00E945300089588
:1001B00080911001813019F410921001089581E0AE
:1001C0008093100108958091480283FF07C09091A9
:1001D000460280E289278093460208958091470273
:1001E000823331F480914602806280934602089502
:1001F000833329F4809146028F7D809346020895CF
:100200008091490290914A028C3921E0920730F4A2
:10021000809146028062809346020895853692401E
:1002200028F0809146028F7D809346020895809148
:100230001001813039F48091460280618B7F809378
:10024000460208C0811106C08091460284608F7EFC
:10025000809346028091460285FF04C088608093A7
:1002600046020895877F809346020895ECE7F0E008
:10027000808180648083EAE7F0E080818068808309
:100280008081876080830895ECE7F0E080818FE0D3
:100290008083EAE7F0E080818064808380917A0047
:1002A00086FDFCCFEAE7F0E0808180618083809169
:1002B00078009091790008950E94CF000E94D300A9
:1002C0000E9436010E94780080E00E9444019093D1
:1002D0004A028093490289B1809348029091C000FC
:1002E00099232CF40E94AF008093470207C082FF3D
:1002F00003C00E94D80002C01092470280911001F2
:10030000813019F40E94E30004C0811102C00E94F0
:1003100000010E9417018091460285B98091470231
:0E032000893391F60E947800CFCFF894FFCF7A
:10032E002B013E01500165017C019101CD010902B5
:10033E00013E3E20004F4B0A00436F6D616E646FAD
:10034E0020696E76616C69646F0A0009313A20206B
:10035E00204D6F646F204D414E55414C0A000932BD
:10036E003A2020204C696761722072656CE90A00A0
:10037E0009333A2020204465736C696761722072DC
:10038E00656CE90A0009343A2020204D6F646F2015
:10039E004175746F6DE17469636F0A0009353A2017
:1003AE002020496D7072696D6972204D454E550A57
:1003BE00002A2A2A20456E672E20496E666F726DBE
:1003CE0061746963612C204172717569746574750D
:1003DE00726120646520436F6D70757461646F7215
:1003EE0065732C20545033202A2A2A0A002A2A2ADE
:1003FE00205475726D612030322C20477275706FEB
:10040E002030392C20323032332F3233202020202E
:10041E0020202020202020202020202020202020CE
:10042E00202020202A2A2A0A002A2A2A2A2A2A2A90
:10043E002A2A2A2A2A2A2A2A2A2A2A2A2A2A2A2A0E
:10044E002A2A2A2A2A2A2A2A2A2A2A2A2A2A2A2AFE
:10045E002A2A2A2A2A2A2A2A2A2A2A2A2A2A2A2AEE
:06046E002A2A2A0A000000
:00000001FF
